:020000040800F2
:100000005022002049010008C11F0008A114000867
:10001000A51A00086D070008AD27000800000000C1
:10002000000000000000000000000000192100088E
:10003000951200080000000099200008C92400085B
:100040006301000863010008630100086301000800
:1000500063010008630100086301000863010008F0
:1000600063010008630100086301000863010008E0
:1000700063010008630100086301000863010008D0
:1000800063010008630100086301000863010008C0
:100090007D27000863010008630100086301000870
:1000A00063010008630100086301000863010008A0
:1000B0006301000863010008630100086301000890
:1000C0006301000863010008630100086301000880
:1000D0006301000863010008630100086301000870
:1000E0006301000863010008630100086301000860
:1000F0006301000863010008630100086301000850
:10010000630100086301000863010008630100083F
:100110002527000863010008630100086301000847
:10012000630100086301000863010008630100081F
:10013000DFF810D000F03EF800480047AD3F00085F
:10014000AFF3008050220020064880470648004751
:10015000FEE7FEE7FEE7FEE7FEE7FEE7FEE7FEE777
:10016000FEE7FEE7D92400083101000840EA010358
:100170009B0703D009E008C9121F08C0042AFAD25D
:1001800003E011F8013B00F8013B521EF9D2704721
:10019000D2B201E000F8012B491EFBD270470022C9
:1001A000F6E710B513460A4604461946FFF7F0FF76
:1001B000204610BD064C074D06E0E06840F0010304
:1001C00094E8070098471034AC42F6D3FFF7B4FF29
:1001D000684B0008884B000870B58C1810F8015B5C
:1001E00015F0070301D110F8013B2A1106D110F8D0
:1001F000012B03E010F8016B01F8016B5B1EF9D1D4
:100200002B0705D40023521E0DD401F8013BFAE759
:1002100010F8013BCB1A921C03E013F8015B01F8C4
:10022000015B521EF9D5A142D8D3002070BD2DE943
:10023000F04107460D461646002400BF07E004EBD8
:10024000C40005EB8001384600F006F8641CB44297
:10025000F5D30020BDE8F0812DE9FC5F05460F468F
:1002600078681E287DD2DFE800F00F103A3B4C5C26
:100270006588A9B3BDC7D0F8F6F5F4F3F2F1F0EF55
:10028000EEEDECEBEAE9E8E749E2002239462846E0
:1002900001F00AFC804601223946284601F004FCA0
:1002A0000646002000900190002400BF08E0A21C38
:1002B0003946284601F0F8FB80B22DF81400641C82
:1002C000B442F4D3B8F1000F04D1B1B2684602F0E1
:1002D0006FFA03E0B1B2684602F0BEFA1FE21EE216
:1002E00000223946284601F0DFFB04460122394648
:1002F000284601F0D9FB86B2E1B2304602F06EF832
:100300000DE201223946284601F0CEFB04460022C8
:100310003946284601F0C8FB0646214602F03EF960
:10032000FDE100223946284601F0BEFB044602F0FA
:1003300045F9F4E103223946284601F0B5FB84B2C1
:1003400002223946284601F0AFFB86B20122394627
:10035000284601F0A9FB1FFA80F8002239462846FA
:1003600000E0D7E101F0A0FB1FFA80F923463246F6
:100370004146484604F09CF8D1E10322394628461C
:1003800001F092FB84B202223946284601F08CFB30
:1003900086B201223946284601F086FB1FFA80F812
:1003A00000223946284601F07FFB1FFA80F92346D8
:1003B00032464146484604F025F9B0E1002239466C
:1003C000284601F071FB84B2204604F07FF9A6E1D3
:1003D00000223946284601F067FB84B2204601F02E
:1003E000BFFF9CE100223946284601F05DFB84B244
:1003F000204601F0E1FF92E100223946284601F053
:1004000053FB044603F092FA89E10222394628465A
:1004100001F04AFB044601223946284601F044FB1C
:10042000064600223946284601F03EFB8046224619
:10043000314603F021FA72E16BE161E155E149E1F6
:1004400047E115E1EAE0C6E0A9E093E087E07CE05F
:100450006AE052E02AE010E0FFE701223946284630
:1004600001F022FB044600223946284601F01CFB1D
:100470000646214603F022FA51E102223946284677
:1004800001F012FB044601223946284601F00CFB1C
:10049000064600223946284601F006FB80462346E0
:1004A00032464146002002F09BFF38E104223946E3
:1004B000284601F0F9FA044603223946284601F09D
:1004C000F3FA064602223946284601F0EDFA804644
:1004D00001223946284601F0E7FA814600223946D2
:1004E000284601F0E1FA824643464A46514600203A
:1004F000CDE9006403F022F811E1022239462846D2
:1005000001F0D2FA044601223946284601F0CCFA1D
:10051000064600223946284601F0C6FA80462246A1
:10052000314603F073F9FAE001223946284601F01A
:10053000BBFA064600223946284601F0B5FA84B2D5
:100540003146204600F0D4FEE9E000223946284634
:1005500001F0AAFA84B2204600F0F0FEDFE00022AB
:100560003946284601F0A0FA04462146002001F051
:100570002DFCD4E000223946284601F095FA0446C5
:1005800001223946284601F08FFA064631462046B8
:1005900001F06EFB2146002001F018FCBFE00022B4
:1005A0003946284601F080FA044601223946284699
:1005B00001F07AFA064602223946284601F074FA1A
:1005C000804642463146204601F05CFB2146002031
:1005D00001F0FCFBA3E000223946284601F064FA52
:1005E000044601223946284601F05EFA06460222F8
:1005F0003946284601F058FA8046032239462846F3
:1006000001F052FA81464B4642463146204601F0FF
:1006100049FB2146002001F0D9FB80E00022394649
:10062000284601F041FA064601223946284601F0E3
:100630003BFA804602223946284601F035FA8146C7
:1006400003223946284601F02FFA82460422394611
:10065000284601F029FA044653464A4641463046A8
:10066000009401F035FB3146002001F0AFFB56E06D
:1006700000223946284601F017FA80460122394601
:10068000284601F011FA814602223946284601F037
:100690000BFA824603223946284601F005FA8346C2
:1006A00004223946284601F0FFF90446052239465E
:1006B000284601F0F9F906465B465246494640464F
:1006C000CDE9004601F022FB4146002001F07EFB0F
:1006D00025E000BF00223946284601F0E5F904462E
:1006E0002146286801F0F6F919E00022394628462B
:1006F00001F0DAF9C4B22146286801F09FFB0EE050
:1007000000223946284601F0CFF904462846A04782
:1007100005E004E03946284600F005F800BF00BFB8
:100720000020BDE8FC9F024600BF00BF00BF0020C4
:100730007047000010B5002400BF0DE0094800EB31
:10074000C4004068C068012805D1064901EBC40116
:10075000486801F0F2FB641C034800688442EDD352
:1007600010BD0000040000203C4B000800BFFEE765
:1007700010B503F027FB03F040FC02F027FC022138
:10078000014802F0ABFA10BD0064004010B502460B
:100790000B460020002100BF03E0545C0444E0B29B
:1007A000491C9942F9D310BD0246881A70472DE9B9
:1007B000FE430546002400BF03E0A0B203F02AFE7A
:1007C000641C0F2CF9D3284600F038FE0646284654
:1007D00000F057FE0746284600F03AFE804600200B
:1007E000CDE900603B46424604210290952001F08D
:1007F000DBFC0020BDE8FE832DE9FE430546002416
:1008000000BF03E0A0B203F02DFE641C0F2CF9D34F
:10081000284600F013FE0646284600F032FE074642
:10082000284600F015FE80460020CDE900603B46DA
:10083000424604210290952001F0B6FC0020BDE85C
:10084000FE8300002DE9F04186B0054600200590AA
:1008500004900390002403AA04A9284600F0FEFD9A
:10086000039808B1049804788DF814401548005D89
:100870008DF81500144800EB84004088000A8DF8BC
:100880001600114800EB840080788DF81700284688
:1008900000F0D4FD0646284600F0F3FD0746284642
:1008A00000F0D6FD8046042005A93B464246CDE92E
:1008B0000061029008218D2001F076FC002006B036
:1008C000BDE8F081AC120020A41200202DE9F04117
:1008D00086B004460020059004900390002504AAE9
:1008E00005A9204600F0BAFD0498022811D9059800
:1008F00000780390059840784FF47F4101EA00208A
:1009000005998978084485B229469DF80C0001F0C4
:100910003DFD204600F092FD0646204600F0B1FD68
:100920000746204600F094FD8046012003A93B467F
:100930004246CDE90061029005219D2001F034FC82
:10094000002006B0BDE8F081F0B587B00446002075
:1009500006900590049005AA06A9204600F07EFDA9
:10096000059830B10698007804909DF8100001F0C9
:1009700023FD204600F062FD0546204600F081FD83
:100980000646204600F064FD0746012004A93346D0
:100990003A46CDE90051029005218D2001F004FC7A
:1009A000002007B0F0BD00002DE9F04186B00546FB
:1009B000002005900490002404AA05A9284600F010
:1009C0004DFD04980C283ED90598007822494968C5
:1009D00009698968486000BF12E0022202EB440204
:1009E000059B995C012202EB4402985C04F09CF8A0
:1009F0001949496809698968083141F82400641C6B
:100A0000062CEAD3002014494968096989680862FC
:100A10001221284601F0DAF9284600F00FFD0646BB
:100A2000284600F02EFD0746284600F011FD8046BE
:100A30000020CDE900603B464246042102908D2013
:100A400001F0B2FB03E00721284601F066FB00201D
:100A500006B0BDE8F0810000CC08002010B50446C7
:100A60001221204601F0B2F9002010BD2DE9FF410E
:100A7000054600200390002401F010FB00BF05E0B4
:100A8000134810F8140003A90855641C022C03D263
:100A9000104800688442F3D3284600F0CFFC064695
:100AA000284600F0EEFC0746284600F0D1FC8046C0
:100AB000022003A93B464246CDE90061029006218F
:100AC0008D2001F071FB002004B0BDE8F081000032
:100AD0004E090020444B00082DE9F04387B005463D
:100AE00000200690059004900024002604AA05A981
:100AF000284600F0B3FC049808B10598047801F08A
:100B0000CDFA102C03DA204600F0BEFC06468DF824
:100B100018408DF81960284600F090FC07462846DA
:100B200000F0AFFC8046284600F092FC814602208F
:100B300006A943464A46CDE90071029006218D2060
:100B400001F032FB002007B0BDE8F0832DE9F0434F
:100B500087B00546002006900590049000260024EA
:100B600004AA05A9284600F079FC049801280AD9AE
:100B7000059840780599097800EB012086B270004D
:100B800000F1C0400488059800788DF81800059899
:100B900040788DF81900200A8DF81A00E0B28DF81F
:100BA0001B00284600F04AFC0746284600F069FC76
:100BB0008046284600F04CFC8146042006A94346A6
:100BC0004A46CDE90071029008218D2001F0ECFA2F
:100BD000002007B0BDE8F0832DE9F04387B005465B
:100BE00000200690059004900024002604AA05A980
:100BF000284600F033FC049808B1059804780D2CC1
:100C000003DA204600F046FC06468DF818408DF8C1
:100C10001960284600F012FC0746284600F031FC17
:100C20008046284600F014FC8146022006A943466F
:100C30004A46CDE90071029006218D2001F0B4FAF8
:100C4000002007B0BDE8F0832DE9F0438FB00446E3
:100C500016A000680E90202106A8FFF7A0FA2046F3
:100C600000F0ECFB0646204600F00BFC0746204651
:100C700000F0EEFB8046204600F0E7FB40F08009E4
:100C800002200EA906234A46CDE90087CDE902617C
:100C900004901E2106A800F073FB0546294606A80D
:100CA00001F05FFA00200FB0BDE8F08320250000BE
:100CB0002DE9F0438DB00446202105A8FFF76FFA17
:100CC000204600F0BBFB0646204600F0DAFB074654
:100CD000204600F0BDFB8046204600F0B6FB40F009
:100CE000800901200C4905234A46CDE90087CDE95A
:100CF000026104901E2105A800F042FB054629462A
:100D000005A801F02EFA04480078401C024908703A
:100D100000200DB0BDE8F083EA0800202DE9F04185
:100D200086B00446002005900490002504AA05A979
:100D3000204600F093FB049820B1059805782846DA
:100D400003F068FB204600F079FB0646204600F0E1
:100D500098FB0746204600F07BFB80460020CDE94B
:100D600000603B464246042102909D2001F01CFA9F
:100D7000002006B0BDE8F081F0B587B00446002041
:100D800006900590049005AA06A9204600F066FB8F
:100D9000059830B10698007804909DF8100003F093
:100DA00061FB204600F04AFB0546204600F069FB47
:100DB0000646204600F04CFB0746012004A93346B6
:100DC0003A46CDE90051029005219D2001F0ECF951
:100DD000002007B0F0BD7CB50546002001900090D2
:100DE00000246A4601A9284600F038FB009888B123
:100DF0000199087802F07AFF0446062C06DA0023EF
:100E00001A462146284602F0EBFA03E0072128465D
:100E100001F083F900207CBD2DE9F04F85B0044638
:100E2000002004900390002500260027804603AA96
:100E300004A9204600F012FB039898B104980578A5
:100E40000498467804988778049800790499C978BA
:100E500000EB01201FFA80F843463A463146284607
:100E600003F026FB204600F0E9FA8146204600F018
:100E700008FB8246204600F0EBFA83460020CDE9CD
:100E8000009053465A46042102909D2001F08CF9AF
:100E9000002005B0BDE8F08F2DE9FC41064600209A
:100EA000019000906A4601A9304600F0D7FA0098F8
:100EB000B8B10199087802F019FF0446062C0BD24C
:100EC00001988578022705B901272B463A46214625
:100ED000304602F085FA03E00721304601F01DF9A3
:100EE00000BF0020BDE8FC812DE9FC410646002042
:100EF000019000906A4601A9304600F0AFFA0098D0
:100F0000052825D90199087802F0F0FE04460198D9
:100F10004578062C17D2032D15D20198807800064B
:100F20000199C97840EA01400199097940EA012014
:100F30000199497940EA01073B462A462146304655
:100F400002F04EFA03E00721304601F0E6F800BF58
:100F50000020BDE8FC812DE9F04387B00646002063
:100F60000690059004900024002504AA05A93046A7
:100F700000F074FA0498012803D9059804780598BC
:100F800045780D2C04DA2946204601F0B9FCC5B29B
:100F90008DF818408DF81950304600F04FFA07468A
:100FA000304600F06EFA8046304600F051FA814635
:100FB000022006A943464A46CDE900710290062167
:100FC0008D2001F0F1F8002007B0BDE8F0832DE995
:100FD000F04387B005460020069005900490002657
:100FE000002404AA05A9284600F038FA049803282A
:100FF00011D9059840780599097800EB012086B24F
:101000000598C0780599897800EB012084B27000BA
:1010100000F1C0400480059800788DF8180005980C
:1010200040788DF81900200A8DF81A00E0B28DF88A
:101030001B00284600F002FA0746284600F021FA75
:101040008046284600F004FA8146042006A943465B
:101050004A46CDE90071029008218D2001F0A4F8E4
:10106000002007B0BDE8F08310B5024602EB420055
:1010700000EB8210074B03EB800002EB420303EB13
:101080008213044C04EB830393F800310B44DBB26E
:10109000C05C10BD281B0020014601EB410000EBA5
:1010A0008110084A02EB800090F8040101EB410234
:1010B00002EB8112034B03EB820292F80021801AAB
:1010C000C0B27047281B002010B504462046FFF729
:1010D000E3FFC0F1FF0010BD0146002001EB41021B
:1010E00002EB81120A4B03EB8202C2F8000101EB12
:1010F000410202EB811203EB8202C2F8040101EB10
:10110000410202EB811203EB8202C2F80801704730
:10111000281B002010B504462046FFF7BDFF08B984
:10112000012010BD0020FCE72DE9F04104460F46E8
:10113000904600262046FFF7AFFF054615B9002070
:10114000BDE8F081454500D94546C7B1002614E009
:1011500004EB440000EB8410144901EB800004EB25
:10116000440101EB8411114A02EB810191F8001155
:101170003144C9B2405CB855761CAE42E8D304EBAA
:10118000440000EB8410094901EB800090F8000155
:101190002844C0B204EB440101EB8411034A02EB82
:1011A0008101C1F800012846CAE70000281B002081
:1011B0002DE9F04104460F4615462046FFF784FF0F
:1011C00080460026454513D904EB440000EB84100B
:1011D0001F4901EB8000D0F80801401C04EB4401DA
:1011E00001EB84111A4A02EB8101C1F8080145465E
:1011F000002614E0B85D04EB440101EB8411144AAD
:1012000002EB810104EB440202EB8412104B03EB6E
:10121000820292F804213244D2B28854761CAE4243
:10122000E8D304EB440000EB8410094901EB800093
:1012300090F804012844C0B204EB440101EB84118E
:10124000034A02EB8101C1F804012846BDE8F081A0
:10125000281B002010B5A0B080216846FEF79FFF34
:1012600002228021684600F0BEF804462CB9002214
:101270008021684600F0B7F804460CB920B010BDD4
:10128000684600F0E5F8022802D1684600F0AEFE9C
:1012900000BFF3E77047000070B504460D460948EB
:1012A00030F83400052808D1064901EBC40148880C
:1012B000294600F0B9FF002070BD00BF00BF00202C
:1012C000FAE70000B412002010B50446074830F8D1
:1012D0003400052806D1054901EBC401488800F017
:1012E000C7FF10BD00BF00BF0020FAE7B412002006
:1012F00070B504460D46104830F83400052812D267
:10130000DFE800F003040506080000BF00BF00BFCF
:10131000002070BD084901EBC4014888294601F04E
:101320003DF90020F5E729462046FFF7B5FF00BF4D
:1013300000BF0020EDE70000B412002010B5044605
:101340000E4830F83400052811D2DFE800F003041D
:101350000506080000BF00BF00BF002010BD074900
:1013600001EBC401488801F029F90020F6E7204686
:10137000FFF7AAFF00BF00BF0020EFE7B412002074
:101380002DE9F04F044617469846DDF824B0DDE914
:101390000B9A0D9D002668202070677084F80280EB
:1013A00084F803B00A9820714FEA2920607184F80C
:1013B0000690BAF1000F09D045B100BF04E01AF859
:1013C0000610F01D2154761CAE42F8D3E91D2046CC
:1013D000FFF7DCF9E91D6054162105F108002154DE
:1013E000401CBDE8F08FF8B505460F46164600BF15
:1013F000002000906946304600F01AFB044644B9CC
:10140000009828B100213046009AFFF78DFE07E0D2
:101410000BE0224629463046FFF786FE2046F8BDFF
:101420003046FFF777FE0028E2D000BF0020F6E745
:1014300001480068704700000000002001468879DC
:101440004A7900EB022080B2704701464878704725
:1014500001460879704701468878704710B5034601
:101460000C46D81D20601846FFF7F5FF001F1060DE
:10147000106810BD00B502461046FFF7ECFF001FD4
:1014800000BD0146C878704701460148405C70477E
:101490002C18002001460148405C7047F0180020DD
:1014A00000BFFEE7034600BF00BF00BF002070473B
:1014B0002DE9F04106460C46154605EBC50004EB48
:1014C000800040681D2878D2DFE800F00F12142554
:1014D000364B607990A0B0C0D0F0EDECEBEAE9E8D3
:1014E000E7E6E5E4E3E2E1E0DF000120BDE8F081CA
:1014F0000020FBE705EBC50004EB8001002230462D
:1015000000F0D2FA0746B8B202F078FF08B901201D
:10151000ECE70020EAE705EBC50004EB80010022C0
:10152000304600F0C1FA0746B8B203F0BDF808B182
:101530000120DBE70020D9E705EBC50004EB8001C3
:101540000022304600F0B0FA0746B8B202F056FF6B
:1015500028B9B8B203F0A8F808B10120C6E7002006
:10156000C4E705EBC50004EB80010022304600F023
:101570009BFA0746384601F0DDFE28B9384602F0EE
:10158000C7F908B10120B1E70020AFE705EBC500BE
:1015900004EB80010022304600F086FA0746012263
:1015A0002146304600F080FA1FFA80F8B8B202F007
:1015B00025FF404502DC012098E7B3E1B8E105EBE7
:1015C000C50004EB80010022304600F06DFA804631
:1015D00001222146304600F067FA87B2404601F00A
:1015E000A9FEB84201DC012080E7A1E105EBC500BE
:1015F00004EB80010022304600F056FA07463846D8
:1016000001F0D8FE08B1012070E791E105EBC500BB
:1016100004EB80010022304600F046FA07463846C7
:1016200001F096FE08B1012060E781E105EBC500FD
:1016300004EB80010022304600F036FA07463846B7
:10164000FFF722FF012800D150E771E105EBC5004B
:1016500004EB80010022304600F026FA07463846A7
:10166000FFF712FF08B9012040E761E105EBC50073
:1016700004EB80010022304600F016FA0746384697
:1016800000F0C4F988B1012030E749E12BE10DE118
:10169000EFE0DDE0CFE0C1E0B3E09AE081E068E0B8
:1016A0004FE036E028E01AE000E041E105EBC5003C
:1016B00004EB80010022304600F0F6F907460122D3
:1016C0002146304600F0F0F91FFA80F8780000F16A
:1016D000C0400088404501D1012007E728E105EB23
:1016E000C50004EB80010022304600F0DDF907461A
:1016F000384600F01FFAF9E605EBC50004EB80015F
:101700000022304600F0D0F90746384600F020FAB3
:10171000ECE605EBC50004EB80010022304600F04A
:10172000C3F9074605EBC50004EB800101223046F2
:1017300000F0BAF9804642463946306800F086FA31
:10174000D4E605EBC50004EB80010022304600F032
:10175000ABF9074605EBC50004EB800101223046DA
:1017600000F0A2F9804642463946306800F04AFA55
:10177000BCE605EBC50004EB80010022304600F01A
:1017800093F9074605EBC50004EB800101223046C2
:1017900000F08AF9804642463946306800F00EFA79
:1017A000A4E605EBC50004EB80010022304600F002
:1017B0007BF9074605EBC50004EB800101223046AA
:1017C00000F072F9804642463946306800F02CFA43
:1017D0008CE605EBC50004EB80010022304600F0EA
:1017E00063F9074605EBC50004EB80010122304692
:1017F00000F05AF9804642463946306800F0F0F968
:1018000074E605EBC50004EB80010022304600F0D1
:101810004BF90746384601F0C1FD67E605EBC50008
:1018200004EB80010022304600F03EF907463846BE
:1018300001F0A8FD5AE605EBC50004EB800100228B
:10184000304600F031F90746B8B200F089F84DE6AD
:1018500005EBC50004EB80010022304600F024F9BE
:101860000746B8B200F07CF808B100203EE601203F
:101870003CE605EBC50004EB8000D0F808800027AB
:1018800000BF0FE005EBC50004EB80000830791CB9
:1018900050F8212021463046FFF70AFE08B9002003
:1018A00024E67F1C4745EDD301201FE605EBC5006C
:1018B00004EB8000D0F80880002700BF0FE005EBA4
:1018C000C50004EB80000830791C50F82120214627
:1018D0003046FFF7EDFD08B1012007E67F1C4745C4
:1018E000EDD3002002E605EBC50004EB8000D0F844
:1018F0000880002700BF0FE005EBC50004EB800067
:101900000830791C50F8212021463046FFF7D0FDE1
:1019100008B10020EAE57F1C4745EDD30120E5E54D
:101920000120E3E52A4621463046FFF7BBFDDDE511
:1019300000BF0020DAE5000010B50446074830F883
:101940003400052806D1054901EBC401488800F0A0
:101950003FF810BD00BF00BF0020FAE7B41200201E
:1019600010B50446164830F83400052822D2DFE8C6
:1019700000F00305070E1900012010BD0020FCE750
:101980000F4901EBC401488800F01CF8F5E70C4949
:1019900001EBC401488800F015F808B10020ECE71D
:1019A0000120EAE7064901EBC401488800F02EF85F
:1019B00080B2E2E700BF00BF2046FFF7BDFFDCE7D3
:1019C000B412002001460148405C70472C180020EA
:1019D000014601EB81000C4A12F82000012801D0D9
:1019E0000020704701EB8100074A02EB8000C068CD
:1019F00001EB8102044B03EB82021269904201D396
:101A00000120EEE70020ECE71818002010B504468E
:101A1000204600F00BFE054800EB04104068022849
:101A200001D1012010BD0020FCE7000000190020BA
:101A30002DE9F04180460E4600244046FFF72CFB7E
:101A400007460025092F02D20020BDE8F0810024BE
:101A500000E0641CBC4205D221464046FFF704FB6F
:101A60006828F6D114B134600020EEE70221404628
:101A7000FFF7FAFA05467B2D03DD022030600020D7
:101A8000E3E7681D874201D20020DEE7291D4046BA
:101A9000FFF7EAFA162803D0281D30600020D4E7AB
:101AA000681DD2E700BFFEE710B50346086A20B103
:101AB00001249440086A204020B901F1080050F840
:101AC000220010BD01F1080050F822009C6954F872
:101AD0002000F6E72DE9FF4104460D46144800EBCF
:101AE000C40046680220124901EBC4014968C8607D
:101AF0000F4800EBC40040684561708AA8B100201F
:101B00000390A527A8B203A903F013F805B1F527A0
:101B1000022103AA708ACDE901210090337C727CF6
:101B20000621384600F040FB00BFBDE8FF81000001
:101B3000040000200146054800EBC1004068C06871
:101B4000022801D1012070470020FCE7040000209A
:101B50000146084800EBC1004068C068022807D170
:101B6000044800EBC1004068406908B1012070479B
:101B70000020FCE7040000200146084800EBC100FB
:101B80004068C068022807D1044800EBC1004068E3
:101B9000406908B9012070470020FCE704000020DC
:101BA0000146054800EBC1004068C068012800D12B
:101BB00070470020FCE700000400002003460748AF
:101BC00000EBC3004068806800EB810040889042D1
:101BD00001DD012070470020FCE700000400002028
:101BE0000346074800EBC3004068806800EB8100B3
:101BF0004088904201DB012070470020FCE7000094
:101C0000040000200346074800EBC30040688068DA
:101C100000EB81004088904201D1012070470020F4
:101C2000FCE70000040000200346074800EBC30067
:101C30004068806800EB81004088904201DA012012
:101C400070470020FCE7000004000020034607481E
:101C500000EBC3004068806800EB81004088904240
:101C600001DC012070470020FCE700000400002098
:101C7000034A02EBC002526892691160704700008B
:101C800004000020064B03EBC0035B689B691960EE
:101C9000034B03EBC0035B689B695A60704700000D
:101CA0000400002010B5094C04EBC0046468A4696A
:101CB0002160064C04EBC0046468A4696260034CB4
:101CC00004EBC0046468A469A36010BD0400002094
:101CD00030B5039C0C4D05EBC0056D68AD692960FE
:101CE000094D05EBC0056D68AD696A60064D05EBF1
:101CF000C0056D68AD69AB60034D05EBC0056D684F
:101D0000AD69EC6030BD00000400002070B5DDE975
:101D100004450F4E06EBC0067668B66931600C4E7E
:101D200006EBC0067668B6697260094E06EBC0061F
:101D30007668B669B360064E06EBC0067668B6698B
:101D4000F460034E06EBC0067668B669356170BD77
:101D500004000020F0B505AC70CC124F07EBC007B3
:101D60007F68BF6939600F4F07EBC0077F68BF69A5
:101D70007A600C4F07EBC0077F68BF69BB60094FF3
:101D800007EBC0077F68BF69FC60064F07EBC00721
:101D90007F68BF693D61034F07EBC0077F68BF697C
:101DA0007E61F0BD04000020F0B504460D461646E5
:101DB0001F46054901EBC4013B46324648682946A7
:101DC00000F09DF8F0BD0000040000202DE9F04770
:101DD00005460C46184800EBC40046682046FFF74D
:101DE000DFFE30B11DB10821284600F096F9BDE8AC
:101DF000F087304600F070F8346095B12846FFF760
:101E00001DFB07462846FFF723FB80462846FFF7C1
:101E100038FB81463B46424649462046FFF7C4FF11
:101E200005E000231A4619462046FFF7BDFF30465D
:101E300000F069F800BFDAE70400002033B583B092
:101E40000546094800EBC5004468012104AA608AE0
:101E5000CDE901210090237C627C0521A52000F0C2
:101E6000A3F905B030BD00000400002070B50446A1
:101E70000D460120A16821F82500A06800EB85002F
:101E80004088401CA16801EB85014880E9B22078B8
:101E900000F072F970BD10B503460C46986830F832
:101EA0002400012806D12146184600F005F808B99B
:101EB000012010BD0020FCE702465068006850F881
:101EC0002100022801D1012070470020FCE70022F8
:101ED000836823F821207047002100BF08E000221A
:101EE000836823F82120836803EB81035A80491C0F
:101EF000426852688A42F2D80022C2607047017478
:101F000042744382704770B5044600252046FFF7AF
:101F1000E3FF0120E06000BF0AE06068006850F85D
:101F20002500012803D129462046FFF79FFF6D1C9D
:101F300060684068A842F0D870BD2DE9F0410546C0
:101F40000027002600BF35E06868006907EB8701BD
:101F500000EB810428462168FFF79DFF00B928E0C7
:101F60006268686881682846FFF7A2FA00281FDDCA
:101F7000227B2846A168FEF75AF928462168FFF718
:101F8000A6FF002611E004F10E00815D2846FFF750
:101F90006DFF04F10E00815D2846FFF78DFF18B13B
:101FA0000220E860BDE8F081761C607BB042EAD890
:101FB00000BF7F1C68684069B842C5D800BFF1E720
:101FC0007047000010B5002807DA0A07140E054A0A
:101FD00000F00F031B1FD45403E00A07130E024A3C
:101FE000135410BD18ED00E000E400E02DE9FE43BD
:101FF00005462846FFF722FA0646002400BF43E0C4
:1020000004EB8400234901EB80008088B0423AD180
:1020100004EB840001EB8000806820B32846FFF7C2
:1020200029FA04EB84011B4A02EB8101C96888424A
:1020300019D02846FFF725FA80462846FFF708FA08
:1020400081462846FFF701FA40F0C007002003222E
:10205000CDE9002043464A4604210290384600F06C
:10206000A3F8BDE8FE8304EB84000A4901EB80007D
:10207000006938B104EB84000A4602EB8000016974
:102080002846884702E0641C162CB9D300BF00BF65
:10209000E7E700004C13002070470000002100BF5C
:1020A0000CE0174830F81100400000F1C0400088F3
:1020B000C043144A22F81100481C81B2124800683B
:1020C0008142EED3002114E0104830F821000D4A7F
:1020D00032F810000D4A02EB81025288104018B10C
:1020E00001200B4A505402E00020094A5054481C79
:1020F00081B2084800688142E6D3002070470000A2
:102100004A0900204E090020444B000852090020D3
:102110002C180020404B000870472DE9FF41054670
:102120000C460020039003A9204602F002FD284639
:10213000FFF784F906462846FFF7A3F90746284625
:10214000FFF786F98046022003A93B464246CDE9C7
:10215000006102900621F52000F026F804B0BDE8E9
:10216000F08170B504460D4600262946204600F051
:10217000F7FD0646304670BD7FB504460D4600208B
:1021800003908DF80C408DF80D50022003A949F200
:1021900001620023CDE90021029002460621184683
:1021A00000F002F804B070BD2DE9F04F8DB0044688
:1021B0000D4616461F46DDE9179ADDF858802021A6
:1021C00005A8FDF7ECFF2B4622461E2105A88DE849
:1021D000C007FFF7D5F88346594605A8FFF7C1FFAA
:1021E0000DB0BDE8F08F0000002100EB80020D4B28
:1021F00003F82210FF2100EB800203EB82025170F2
:10220000002100EB800203EB8202516000EB8002B0
:1022100003EB8202916000EB800203EB8202D1604B
:10222000704700001818002070B504460D4620467F
:10223000FFF7DAFF012004EB84010B4A02F82100CA
:1022400004EB8400114601EB80000561074931F879
:102250001400FFF719F904EB8401034A02EB810132
:102260004870002070BD000018180020E808002009
:102270000146002001EB8102014B03F82200704768
:102280001818002070B50446002504EB84002C4982
:1022900011F82000012801D0002070BD294931F833
:1022A0001400FFF7F1F8054604EB8400244901EB24
:1022B00080004078D0B9012D18D104EB840001EBE7
:1022C00080004068401C04EB84011D4A02EB810140
:1022D000486004EB8400114601EB8000C068401C9C
:1022E00004EB840102EB8101C86020E004EB840070
:1022F000134901EB80004078012818D1BDB904EBE7
:10230000840001EB80008068401C04EB84010C4ACF
:1023100002EB8101886004EB8400114601EB800030
:10232000C068401C04EB840102EB8101C86004EB2F
:102330008400034901EB800045700020ADE70000F8
:1023400018180020E808002010B5002400BF03E0A2
:10235000A0B2FFF797FF641C002CF9D0002010BD3D
:102360000146084800EB81004288064830F8210009
:10237000400000F1C04002800120034A5054002078
:1023800070470000A4120020AC120020024608484A
:1023900030F82200400000F1C040018019B1012056
:1023A000044B985402E00020024B985400207047E0
:1023B000A4120020AC12002001460022054830F88B
:1023C0002100400000F1C04002800020024A505429
:1023D00070470000A4120020AC12002030B5054662
:1023E0000C461CB9284600F005F830BD284600F020
:1023F00035F8FAE710B50146002201EB4100124B17
:1024000033F81020114830F8120001EB41030E4C54
:1024100004EB43035B8818430C4B23F81200184667
:1024200030F812300A4830F81200400000F1C04085
:102430000380002307480088400000F1C04003806B
:102440000020054B585410BD880A0020860A002041
:10245000840A00204C4B0008A00A002010B5014659
:10246000002201EB4100134B33F81020124830F8E2
:10247000120001EB41030F4C04EB43035B889843CC
:102480000D4B23F81200184630F812300B4830F884
:102490001200400000F1C04003800023084800887B
:1024A000400000F1C04003800120064B585400203A
:1024B00010BD0000880A0020860A0020840A00203F
:1024C0004C4B0008A00A002002480068401C01494B
:1024D000086070470000002008B51848006840F404
:1024E0007000164908601648006840F00100144961
:1024F00008600846406840F0800048600020009076
:1025000002E00098401C009044F620610098884248
:10251000F7D300200A494860C862084600680949A4
:102520000840074908604FF41F00886008460068AB
:1025300020F48020086002F059F908BD88ED00E021
:1025400000100240FFFFF6FE70B50446FEF770FF74
:102550000546044901EB041108682946FEF724F9F1
:1025600070BD00000019002010B50446FEF760FFA2
:10257000094901EB041108600120074901EB04112E
:1025800048600020044901EB04118860024901EB16
:102590000411C86010BD00000019002070B5044689
:1025A0000D4604EB4400044901EB800085602046A1
:1025B000FFF7DAFF70BD0000F80A00200021044A8E
:1025C00002EB00121160024A02EB001251607047E8
:1025D0000019002010B50446204600F027F81148E5
:1025E00000EB0410406801281AD104EB44000E49A6
:1025F00001EB8000406898B90A4901EB0411896831
:10260000084A02EB0412D268881A40B1054901EB6E
:1026100004118968034A02EB0412D16010BD00BFA7
:102620000020FBE700190020F80A002070B50446DE
:10263000194800EB0410406801282BD1FEF7F8FE82
:102640000646154901EB041108683146FEF7ACF85F
:10265000054604EB4400114901EB8000406858B97D
:1026600004EB440001EB80008068B5FBF0F00A4900
:1026700001EB041188600CE004EB4400074901EB16
:1026800080008068A84204D80220034901EB0411AD
:10269000486000BF70BD000000190020F80A00204B
:1026A0002DE9F04780460E4691469A4640F2213089
:1026B0001A4908604AEA094048600020487204202C
:1026C00008728E723246414614480B30FDF74EFDBB
:1026D00000BF1249124800F0D1FB0446032CF8D089
:1026E00014B94FF400750BE0012C02D14FF40275C0
:1026F00006E0022C02D14FF4047501E04FF400759E
:1027000000BF2946064800F049FA0746012FF8D1D4
:102710002946034800F03AFABDE8F087141B002070
:102720000064004008B51249124802F054F948B15B
:10273000104802F0CFF8C0B2009001226946002094
:10274000FEF736FD0C490B4802F045F970B1062141
:10275000084802F016F9012269461046FEF7E4FC2B
:1027600020B19DF80010034802F0B9F808BD000040
:1027700005030500004C00400603060010B50024C8
:102780004FF40041084800F0ADFA4CF281010648D0
:1027900000F0A8FA38B10021034800F05DFC0446BF
:1027A000204601F07BFD10BD0064004000BFFEE745
:1027B00070B503460C46002200F022F908B1012052
:1027C00070BD002216E033F8121001EB41011C4DE0
:1027D00035F811001B4931F8101033F8125005EB91
:1027E0004505174E06EB45056D882943154D25F81F
:1027F0001010521CA242E6DB00220AE0114830F819
:102800001210114830F81200400000F1C040018061
:10281000521C0E4800688242F0D300210C48008808
:10282000400000F1C0400180002205E0002033F8A4
:102830001210084D6854521CA242F7DB0020BFE77B
:10284000A80A0020A60A0020A40A00205C4B000869
:10285000584B0008F018002070B503460C460022C3
:1028600000F0CEF808B1012070BD002216E033F868
:10287000121001EB41011C4D35F811001B4931F8D4
:10288000101033F8125005EB4505174E06EB4505C1
:102890006D88A943154D25F81010521CA242E6DBA5
:1028A00000220AE0114830F81210114830F81200E6
:1028B000400000F1C0400180521C0E480068824276
:1028C000F0D300210C480088400000F1C040018096
:1028D000002205E0012033F81210084D6854521C04
:1028E000A242F7DB0020BFE7A80A0020A60A0020CA
:1028F000A40A00205C4B0008584B0008F018002088
:1029000030B505460C461CB9284600F005F830BD28
:10291000284600F03BF8FAE710B50246002300F025
:102920006FF808B1012010BD02EB4200124931F8E6
:102930001030124830F8130002EB42010E4C04EB49
:102940004101498808430D4921F81300084630F831
:1029500013100B4830F81300400000F1C040018014
:10296000002108480088400000F1C040018000209C
:102970000549885400BFD6E7A80A0020A60A00200F
:10298000A40A0020584B0008F018002010B5024699
:10299000002300F035F808B1012010BD02EB420021
:1029A000124931F81030124830F8130002EB42019E
:1029B0000E4C04EB4101498888430D4921F813006E
:1029C000084630F813100B4830F81300400000F1AF
:1029D000C0400180002108480088400000F1C0404C
:1029E00001800120054988540020D6E7A80A00206C
:1029F000A60A0020A40A0020584B0008F018002066
:102A000000BF0A480088400000F1C0400088C1B201
:102A100001F0010000B900E0F3E700BF01F00100A0
:102A200008B1012070470020FCE70000584B000867
:102A300002E008C8121F08C1002AFAD17047704787
:102A4000002001E001C1121F002AFBD170470000E5
:102A500010B504460548844207D140F2194001F000
:102A60000DFC40F2194001F0F9FB10BD006400407C
:102A7000014600208A69C2F30210704710B5002198
:102A8000837A012202FA03F13E4A126842F00102FF
:102A90003C4B1A603B4A1C3212688A43394B1C3348
:102AA0001A60C289DAB9374A0C3212688A43354B48
:102AB0000C331A60C288344B03EA024243881A433B
:102AC0004389304C403444F8332082882E4B03EA4B
:102AD000024203881A43438904EBC3035A60C28944
:102AE000012A1BD1274A0C3212680A43254B0C33AA
:102AF0001A600288244B03EA024243881A4343893E
:102B0000204C403444F8332082881F4B03EA0242B1
:102B1000C3881A43438904EBC3035A6082893AB9D4
:102B2000184A121D12688A43164B1B1D1A6006E0D4
:102B3000144A121D12680A43124B1B1D1A600289A7
:102B40003AB9104A143212688A430E4B14331A6091
:102B500006E00C4A143212680A430A4B14331A6016
:102B6000027C012A06D1074A1C3212680A43054B2F
:102B70001C331A60034A126822F00102014B1A60EA
:102B800010BD0000006600400000FFFF01F01F03C1
:102B900001229A4000EB91131A60704710B502466B
:102BA00002EB9110006801F01F040123A3401840BC
:102BB00008B1012010BD0020FCE770B502464FF6B9
:102BC000FF730020146824F002041460146844F0B9
:102BD0000104146000E05B1E546804F001040CB9A9
:102BE000002BF8D1546804F001040CB9002074E003
:102BF0000C784FF0404505EA84744D784FF04076EC
:102C000006EA05652C438D784FF4702606EA0545E3
:102C10002C43CD784FF4E00606EA05552C434D8948
:102C20006D1EC5F309052C43D4610C79012C04D128
:102C3000146844F08004146003E0146824F08004F5
:102C400014604C79012C04D1146844F040041460E1
:102C500003E0146824F0400414608C79012C04D142
:102C6000146844F02004146003E0146824F0200485
:102C70001460CC79012C04D1146844F01004146061
:102C800003E0146824F0100414600C7A012C04D1C1
:102C9000146844F00804146003E0146824F0080485
:102CA00014604C7A012C04D1146844F004041460BC
:102CB00003E0146824F004041460146824F0010490
:102CC00014604FF6FF7300E05B1E546804F00104CB
:102CD0000CB1002BF8D103B1012070BD42690A4349
:102CE00042617047F0B505460C46002600274CF2BD
:102CF0008100844205D10021284600F0ADF9064646
:102D000019E01348844205D10121284600F0A4F9B6
:102D1000064610E00F48844204D12846FFF7A8FE7B
:102D2000064608E005EB14300068C4F38412012164
:102D3000914000EA0106686904F01F0201219140F8
:102D400000EA010716B10FB10120F0BD0020FCE739
:102D500084000100CB80010010B5FDF709FD10BD16
:102D600070B506460C46002500BF07E0082101FBB0
:102D7000056002230122FFF793FC6D1CB5EBD40F15
:102D8000F4D304F00701082202FB056002230122AC
:102D9000FFF786FC204670BD10B500F5D87303EB35
:102DA00001131B6803F004031372137A3BB900F597
:102DB000D87303EB01131B685B0D136006E000F58D
:102DC000D87303EB01131B68DB08536000F5D8735D
:102DD00003EB01131B6803F00203537200F5DA736F
:102DE00003EB01131B681B0AD37400F5DA7303EBC2
:102DF00001131B6803F00F03937200F5DC7303EB00
:102E000001131B68D37200F5DC7303EB01131B681D
:102E10001C0A147300F5DC7303EB01131B681C0C14
:102E2000547300F5DC7303EB01131B681C0E9473E1
:102E300000F5DE7303EB01131B68D37300F5DE733B
:102E400003EB01131B681C0A147400F5DE7303EB1B
:102E500001131B681C0C547400F5DE7303EB0113A3
:102E60001B681C0E947421B9C36843F02003C3602F
:102E700003E0036943F02003036110BD30B502464F
:102E80000B460021906800F08060B0F1806F00D1A7
:102E900010E0906800F00060B0F1006F01D10121F6
:102EA00008E0906800F08050B0F1805F01D102210D
:102EB00000E00321032901D1032030BD02F5C070D9
:102EC00000EB0110006800F0010402F5C07000EB97
:102ED00001100460187A88B918883B4C04EA405005
:102EE0005C7A204302F5C07404EB0114246820438B
:102EF00002F5C07404EB0114206013E06FF00704C6
:102F0000586804EAC0001C7A20435C7A204302F52A
:102F1000C07404EB01142468204302F5C07404EB70
:102F20000114206002F5C27000EB0110006820F06F
:102F30000F0402F5C27000EB0110046002F5C270CC
:102F400000EB011000689C7A204302F5C27404EB88
:102F500001142060987B4FF07F4404EA00605C7BA2
:102F60004FF47F0505EA044420431C7B2D1205EA3B
:102F700004242043DC7A204302F5C47404EB0114DA
:102F80002060987C2C0404EA00605C7C2D0205EA39
:102F9000044420431C7C2D1205EA04242043DC7BDE
:102FA000204302F5C67404EB0114206002F5C070E2
:102FB00000EB0110006840F0010402F5C07000EB66
:102FC00001100460084678E70000E0FF00B589B012
:102FD00006A9002000F04DF801A9012000F049F8F1
:102FE0001C48FFF735FD00208DF81C008DF81D00F2
:102FF0008DF81E008DF81F008DF820008DF821003F
:103000008DF818008DF8190005208DF81A0004209D
:103010008DF81B000620ADF8220006A90D48FFF729
:10302000CCFD0020ADF80E000120ADF81000ADF889
:1030300012001020ADF804000C20ADF806000020AE
:10304000ADF80C0001208DF8140001A8FFF716FD63
:1030500009B000BD006400400246002019B9D368E1
:1030600003F0030004E0012902D1136903F0030017
:10307000704710B5024609B900BFFEE732B1012A18
:1030800016D0022A20D0032A41D12EE000234B7112
:10309000CB718B7140F2FF334B8100230B724B706D
:1030A00002238B700023CB700B714B720B7030E0DE
:1030B0000123CB8100230B740B810B804B808B8011
:1030C000CB808B814B8124E0002005E0002401F1BE
:1030D0000B031C54431CD8B20828F7D300238B726F
:1030E0004B600B724B720B6013E0002005E0002474
:1030F00001F10B031C54431CD8B20828F7D300235A
:103100008B724B600B72CB744B720B6001E000BF93
:10311000FEE700BF10BD00002DE9F04104460D465A
:103120001646032000FB04500F4951F820700F4849
:1031300000EB4710C0680E4931F8300005280BD26B
:10314000DFE800F003040506070000BF00BF00BF72
:1031500000BF3046BDE8F08100BF00BF32462946BF
:10316000204600F09BF8F5E75C1200201C100020C0
:10317000B412002070B5044604EB4400454901EB4D
:10318000C000006906287CD2DFE800F0030438554F
:1031900061807DE0204600F0CDF8054604EB440058
:1031A0003C4901EBC0004669B54207D1032004EB5E
:1031B0004401384A02EBC10108611EE0B5420DD25C
:1031C000022004EB4401334A02EBC1010861701B89
:1031D00004EB440102EBC10148610EE0B5420CD999
:1031E000042004EB44012B4A02EBC1010861A81B37
:1031F00004EB440102EBC101486149E0204600F0C4
:10320000D9F8B8B104EB4401224B03EBC101898A20
:103210008AB204EB8401204B03EB8101898888B2D8
:10322000002101F0A9F9032004EB4401194A02EB43
:10323000C10108612CE0204600F0BCF830B1052047
:1032400004EB4401134A02EBC101086120E020466F
:1032500000F070F8054604EB44000E4901EBC00095
:103260004069A84211D304EB84010B4A02EB8101AF
:10327000898888B201F010FA052004EB4401054A60
:1032800000E004E002EBC101086100BF00E000BF04
:1032900000BF70BD701A0020A40F00202DE9F04778
:1032A00086B004460E461546032000FB04601A490A
:1032B00051F82070194800EB4710C068184931F8E0
:1032C0003000052826D1154800EB4710C06801EBF7
:1032D000C0004068D0F8008004EB4400114901EBC5
:1032E000C000D0F804901FFA85FA002005900490E1
:1032F000039003A804A905AA4346CDE90021029042
:1033000042465146484600F081FC0398400006B012
:10331000BDE8F0872846FAE75C1200201C10002068
:10332000B4120020701A00200146002070470346A6
:103330000020704710B5044604EB8401034A02EBF9
:103340008101898888B201F059F810BDA40F0020CE
:1033500010B504462046FFF70DFF04EB4400084972
:1033600001EBC0000069052808D1002004EB4401EE
:10337000034A02EBC1010861012010BD0020FCE7F7
:10338000701A002010B5044604EB4401024A52F8BA
:103390003100FEF7DDFB10BD701A002010B50446A9
:1033A00004EB4401024A52F83100FEF7E5FB10BD80
:1033B000701A002010B5044604EB8400074901EBA5
:1033C0008000C06828B92046FFF7B4FF08B9012083
:1033D00010BD2046FFF7A8FFFAE70000A40F002069
:1033E0002DE9F04F87B081460C4615461E46032056
:1033F00000FB04504D4951F820704D4800EB471038
:10340000D0F804804A4800EB4710C06806904FF09F
:10341000000A474800EB4710D0F810B0444800EBD2
:103420004710C0690590002004904046FEF7B8FBA5
:1034300058B1B9F1000F03D008214846FEF76DFEE0
:103440004FF0FF3007B0BDE8F08F012D00D005B977
:103450000026B0B20490324629462046FFF75CFEB3
:10346000824604EB4400334901EBC000866004EB64
:10347000440041F8308004EB440001EBC000C5601B
:10348000002004EB44012B4A02EBC101086104EB6C
:10349000440102EBC101486155B90598CDE900AB83
:1034A00002902A4621464046069BFEF753FC07E061
:1034B000CDE900AB2A4621464046069BFEF726FC96
:1034C00041464846FEF782FC022D01D0012D2BD14A
:1034D00004EB4400174901EBC000416804988142A5
:1034E00006D100222946204600F090F94046A9E77F
:1034F00004EB8400104901EB80008168049881424C
:1035000012D204EB44000B4901EBC000406804EB0D
:103510004401084A02EBC10188600C22294620467A
:1035200000F074F940468DE740468BE75C120020BE
:103530001C100020701A0020A40F00202DE9F04775
:1035400005460E4617461C46DDE908894FEA096024
:1035500008F0FF0140EA0140A1B240EA010A5346E7
:103560003A4631462846FFF73BFFBDE8F0870000AA
:103570002DE9F04F89B006460D46144606EB86004D
:103580009F4901EB8000808880B2089005EB8500A0
:103590009C4901EB8000007A079005EB850001EB68
:1035A000800090F8099005EB850001EB80004089D0
:1035B000069005EB850001EB800040680C287DD269
:1035C000DFE800F0060712222B32608CBAC1D7E682
:1035D00012E1A0B20690069883B2079881B24A46DB
:1035E000089800F065FF07E1200E10B10120079058
:1035F00001E000200790C4F30E03079881B24A4609
:10360000089800F055FFF7E0069883B2079881B25A
:103610004A46089800F04CFFEEE0069882B2494610
:10362000089800F0A9FFE7E01FFA84FA05EB85008F
:10363000744901EB8000C06806EB4601724A02EB58
:10364000C101496850F8217005EB85006D4901EB17
:103650008000C06850F82A8001200790B84505D244
:1036600000200790A7EB0800069002E0A8EB0700F7
:103670000690069883B2079881B24A46089800F0EF
:1036800017FFB9E005EB85005E4901EB8000C068DB
:10369000076805EB850001EB8000C06800F10408B5
:1036A00006EB4600584901EBC000D0F804A01FFA11
:1036B00084FB06A807A943463A4600E094E0CDE91A
:1036C00000105946504600F0E3FA069883B2079876
:1036D00081B24A46089800F0EBFE8DE005EB8500CC
:1036E000484901EB8000C068076805EB850001EBE5
:1036F0008000C068D0F8048006EB4600424901EB28
:10370000C000D0F804A01FFA84FB0020059005A893
:1037100006A907AA4346CDE9002102903A46594638
:10372000504600F073FA069883B2079881B24A4671
:10373000089800F0BDFE5FE0079881B24A460898FD
:1037400000F03CFF58E0A0B2069005EB85022D4B3F
:1037500003EB82021169069A90B200F0E1FA814609
:10376000069883B2079881B24A46089800F0A0FEF6
:1037700042E0200E0790C4F30749A0B206900698D5
:1037800083B2079881B24A46089800F091FE33E070
:1037900006EB46001C4901EBC000808887B21FFA87
:1037A00084F847451FD0200E0590C4F307400490CD
:1037B0000020039003A804A9CDE9001005EB8500C3
:1037C000104901EB800005AB4146C268384600F065
:1037D000C8FABDF80C30BDF81020BDF814100898D8
:1037E00000F066FE00BF07E0224629463046FFF79C
:1037F0009EFD09B0BDE8F08F00BF0020F9E7000092
:10380000A40F00204C0C0020701A00202DE9F0417C
:1038100004460D461646032000FB0450134951F898
:103820002070134800EB4710806838B1104800EB57
:1038300047103246294683682046984704EB4401E6
:103840000C4A52F831003146FEF744F904EB4400CB
:10385000084901EBC000008980B204EB4401054A2D
:1038600002EBC10148600020BDE8F0815C1200203D
:103870001C100020701A00202DE9F04104460D466E
:103880001646032000FB0450094951F820700948EE
:1038900000EB4710406950F8261004EB4400064B3B
:1038A00003EBC00082682046FFF762FEBDE8F081AE
:1038B0005C1200201C100020701A002030B5032379
:1038C00003FB00130F4C54F82320012300EB4004AA
:1038D0000D4D05EBC40423610C4B03EB42139B69B4
:1038E00000EB400405EBC4046361084B03EB421397
:1038F0009B692BB9052300EB400405EBC40423614D
:1039000030BD00005C120020701A00201C10002046
:1039100010B5044604EB8401034A02EB8101898857
:1039200088B200F0C1FE10BDA40F002010B50446FF
:1039300004EB8401034A02EB8101898888B200F01C
:10394000C5FE10BDA40F002010B504460220FEF7EE
:103950000BFE00BF0220FEF7F7FDA042FAD30220C3
:10396000FEF72CFE10BD000000B597B04FF4A1602B
:1039700000F064FC40F2056000F060FC40F206607C
:1039800000F05CFC40F2036000F058FC4CF2037362
:1039900003221821254800F05BFA4FF680730322BA
:1039A0001821234800F054FA042303221821204848
:1039B00000F04EFA3023032218211C4800F048FA88
:1039C000802303221821194800F042FA80230322A1
:1039D0001821184800F03CFA002001900290039052
:1039E000022004900A2005900620069008200790E7
:1039F0000020089009900A900B900C9001200D90E7
:103A000000200E900F90109011901020129008201E
:103A100013900120149001A81590169008A800F0AA
:103A200017F8002000F008F817B000BD001401409E
:103A300000180140000C0140C100A1F1C04109681B
:103A400041F00102C100A1F1C0410A6070470000CD
:103A500070B50021002200230468E400A4F1C044F2
:103A60002168414C2140D0E90B4544EA4504856A70
:103A70002C43456A44EA0524056A2C43C56944EA97
:103A8000852485692C43456944EA0534056944EA7F
:103A90004534856844EA8534C56844EAC5344568D8
:103AA0002C432143446B247E641E04F00F04456BB9
:103AB0006D696D1EF02606EA05152C43456B2D69D0
:103AC0006D1E4FF47F4606EA05252C43456BAD89F4
:103AD0006D1E4FF4702606EA05452C43456BAD6814
:103AE0002C43456B6D682C43456B2D6844EA0502F9
:103AF000C46A082C01D141F040018468012C20D116
:103B0000846B247E641E04F00F04856B6D696D1E4A
:103B1000F02606EA05152C43856B2D696D1E4FF4C2
:103B20007F4606EA05252C43856BAD896D1E4FF453
:103B3000702606EA05452C43856B2D6844EA05038B
:103B400001E06FF070430468E400A4F1C044216018
:103B50000468E400A4F1C04462600468E400A4F1D5
:103B6000C044C4F8043170BD8100F7FF10B54FF4B4
:103B70007A70FFF7E9FE4FF4005303221021044846
:103B800000F066F94FF40051014800F013F910BD40
:103B90000014014010B504460B4931F8140000F040
:103BA0004DFB0A4951F82430094951F824000322F9
:103BB000102100F04DF9054850F82400044951F84F
:103BC0002410486110BD00000C090020FC080020F2
:103BD000EC08002070B504460A4A52F824100A4A3C
:103BE00052F8240000F092F9C0F10100C5B2054A74
:103BF00052F82410044A52F824002A4600F0DCF857
:103C000070BD0000FC080020EC0800202DE9F04108
:103C100004460D461646DDE9077CDDF8188003FBF7
:103C200004F0B0FBF6F103FB05F0B0FBF6F2012067
:103C3000C8F800008A4214D9501AB3EB400F0AD2D8
:103C40000020C8F800005818801A38603019401B4E
:103C5000CCF8000019E0501A3860281BCCF800009E
:103C600013E0881AB3EB400F07D29818401A386057
:103C70007019001BCCF8000007E00020C8F8000015
:103C8000881A3860601BCCF800000020BDE8F08185
:103C9000F0B50446DDE905C553F8246053F82170FA
:103CA0000120CCF80000A1420FD9081BB2EB400F55
:103CB00008D20020CCF8000053F822003044C01B8A
:103CC000286011E0B81B28600EE0601AB2EB400FCC
:103CD00005D253F822003844801B286004E00020FD
:103CE000CCF80000F01B28600020F0BD0246002147
:103CF00000BF0AE001EB8100074B03EB8000406846
:103D0000904201D108467047491C0448006881422E
:103D1000F0D34FF0FF30F6E7A40F0020604B00080F
:103D200030B5034600220024002509B9002030BD2B
:103D3000087800F00F0400220EE05000401C51F8FB
:103D40002000984205D35000801C31F8200085B235
:103D500000E003E0501C82B2A242EEDB00BF284626
:103D6000E5E7F0B507460E461446DDE905C57800DF
:103D700034F8200081B2700034F8200082B20120B3
:103D800000EB460034F82000ACF800000120188059
:103D9000914202D1002028800AE0914204DD0020F7
:103DA0001880881A288003E0914201DA501A28808E
:103DB0000020F0BD016170470AB1016100E041617E
:103DC0007047000010B540F2197000F037FA40F269
:103DD000026000F033FA4FF48053032218210548A3
:103DE00000F036F84FF4006303224821014800F048
:103DF0002FF810BD0008014010B540F2046000F03B
:103E00001DFA40F2137000F019FA4FF48063032298
:103E100018210D4800F01CF84FF400630322042120
:103E2000094800F015F840F20531084800F0C6FDD9
:103E300040F20631054800F0C1FD01220321342083
:103E400000F0E2F810BD000000100140004C0040FE
:103E5000F0B5044616460025002201F00F0501F0DA
:103E6000100747B1042E05D145F00305E76B1F434A
:103E7000E76300E0354300201EE0012787401F4034
:103E8000C7B122684FEA800C0F2707FA0CF7BA4334
:103E9000870005FA07F73A43282904D1012787400C
:103EA0001F40676105E0482903D1012787401F4073
:103EB00027612260471CB8B20828DED3082022E020
:103EC000012787401F40E7B16268A0F108074FEA69
:103ED000870C0F2707FA0CF7BA43A0F10807BF00B9
:103EE00005FA07F73A43282904D1012787401F40E4
:103EF000676105E0482903D1012787401F402761FA
:103F00006260471CB8B21028DAD3F0BD0246906850
:103F1000084008B1012070470020FCE7F0B50A46D0
:103F2000002300240021002500F00046B6F1004FD8
:103F300002D11D4EF16901E01B4E7168C0F30345CB
:103F400083B200F44016B6F5401F08D121F0E061BD
:103F5000154E766826F0E066134F7E6012E000F49E
:103F60008016B6F5801F06D1032606FA05F4A14394
:103F700041F0E06106E0460D360103FA06F6B14372
:103F800041F0E06122B1460D360103FA06F63143F5
:103F900000F00046B6F1004F02D1034EF16101E09E
:103FA000014E7160F0BD000000000140FEF7D4FE3C
:103FB00000F02EFD0020FFF7EDFD00F01BFCFFF7E9
:103FC000D3FC00F0B3F90020FEF7CEFA0120FEF793
:103FD000CBFAFFF7CBFD0FE00020FEF7FBFA00283D
:103FE00002DD0020FFF7F6FDFDF734F9FEF756F885
:103FF000FEF7AAF9FCF79EFBEEE710B501220321BC
:10400000142000F001F810BD2DE9F04103460D46E3
:10401000164600240027A0462A48006800F4E06005
:10402000B0F5E06F03D100BF4FF0040830E0254841
:10403000006800F4E060B0F5C06F03D101274FF0D5
:10404000030825E01F48006800F4E060B0F5A06FA9
:1040500002D10227B8461BE01A48006800F4E0606D
:10406000B0F5806F03D103274FF0010810E0154829
:10407000006800F4E060B0F5407F03D104274FF002
:10408000000805E04FF4A06000F020F80227B846D1
:10409000C7F1040005FA00F4C8F104010F20C8407C
:1040A0003040044324010848C45403F01F01012098
:1040B00088405911890001F1E021C1F80001BDE8F3
:1040C000F08100000CED00E000E400E00249014353
:1040D000024A1160704700000000FA050CED00E094
:1040E0002DE9F04F8CB0074600200A904AA090E8D6
:1040F000004CC068CDE905BECDF810A007900FF2C6
:104100001C1ADAE9000ACDE9020A0FF2101ADAE9FC
:10411000000ACDE9000A44484068C0F381000B90D2
:104120000B9820B1012804D002283FD103E03F4A78
:104130003EE03F4A3CE03C48406800F4803CBCF52F
:10414000803F12D13848C06A00F08048B8F1000FB3
:1041500001D1374C00E0374C3348406800F4003957
:10416000B9F5003F02D1314C00E0334C2E48406895
:10417000C0F383412C48406800F0006008B141F072
:1041800010012948406800F0804008B141F020014A
:104190000F2901D2891C06E00F2903D33E2901D83B
:1041A000491C00E03F2104FB01F201E01F4A00BF6F
:1041B00000BF1D484068C0F3031504A8465D22FAFD
:1041C00006F319484068C0F3022502A8465D23FAA9
:1041D00006F0099014484068C0F3C2251DF8056038
:1041E00023FA06F0089037B1012F06D0022F06D02F
:1041F000032F0AD106E00A9208E00A9306E0099824
:104200000A9003E008980A9000E000BF00BF0A98F7
:104210000CB0BDE8F08F00000000000000000000BE
:1042200001020304060708090010024000127A0088
:104230000024F400006CDC0200093D00064A02EB99
:104240009011096800F01F0301229A401143024BAC
:1042500003EB90121160704700100240064A02EB17
:104260009011096800F01F0301229A409143024B0C
:1042700003EB90121160704700100240064A02EBF7
:104280009011096800F01F0301229A401143024B6C
:1042900003EB9012116070470010024010B5044605
:1042A0000FE00B4A00210B48FEF776FD0848007A24
:1042B000042806D10648827A00F10B010220FCF79F
:1042C00077FF201EA4F101018CB2EAD110BD0000DD
:1042D000001B00200064004070B504460D461646E1
:1042E00004EB8401054A02EB8101898888B200F061
:1042F00097F90020FDF778FF70BD0000A40F0020A3
:1043000070B504460D46164604EB8401034A02EBE1
:104310008101898888B200F083F970BDA40F002064
:10432000016841F0400101607047000000B587B0AE
:1043300040F20360FFF782FF40F20260FFF77EFF6A
:1043400040F20F70FFF77AFF4FF4C060FFF776FF7F
:1043500001211948FFF7E2FD2823032218211748FD
:10436000FFF776FD1023032204211448FFF770FDA8
:104370004FF40043032210211148FFF769FD4FF469
:1043800000410F48FFF716FD002001904FF48270A6
:1043900000900020029005904FF4007003901020D0
:1043A0000690002004906946064800F00DF8054884
:1043B000FFF7B6FF07B000BD00023000000C01405F
:1043C00000080140003C004002460020106800F454
:1043D00041500B6818434B6818438B681843CB68EF
:1043E00018430B6918434B6918438B6918431060D5
:1043F000D36923F40063D361704700000146044889
:1044000030F81100400000F1C04000887047000003
:10441000B209002000B5034603EB43000F4901EB4E
:10442000800080884FF6FF51084003EB43010B4AA0
:1044300002EB8101888003EB4300114601EB800011
:104440008188074830F81300400000F1C040018027
:104450000021184600F016F900BD00003C180020AD
:104460009409002000B5034603EB43000E4901EB1D
:104470008000808840F4007003EB43010A4A02EB9D
:104480008101888003EB4300114601EB80008188A5
:10449000064830F81300400000F1C04001800021C0
:1044A000184600F0EFF800BD3C18002094090020E9
:1044B0002DE9F04304460F4690461D462046FFF77F
:1044C0009DFF064604EB4400294901EB80008088EB
:1044D000C0F30029002E22DD04EB4400254901EB46
:1044E0008000806848450DD104EB4400204901EB71
:1044F00080008068801B04EB44011D4A02EB8101AF
:1045000088600CE004EB4400194901EB80008068EE
:10451000304404EB4401164A02EB81018860012F0C
:104520000DD104EB4400124901EB8000806828445F
:1045300004EB44010E4A02EB810188600CE004EBBD
:1045400044000B4901EB80008068401B04EB4401F0
:10455000074A02EB8101886042463946204600F056
:1045600069F82946204600F08DF8BDE8F083000088
:104570003C180020D0090020F0B504460D46164630
:1045800004EB44000B4901EB80008088C0F3002756
:1045900004EB4400084901EB80008068B84201D177
:1045A000012700E0002733462A4639462046FFF718
:1045B0007FFFF0BD3C180020D0090020F0B5044674
:1045C0000D461646002704EB44000D4901EB800020
:1045D0008068002805DD04EB440001EB800087685B
:1045E00006E004EB4400064901EB80008068474286
:1045F000BBB2324629462046FFF75AFFF0BD000005
:104600003C180020F0B505460C4616461F4684F0BF
:1046100001013B4632462846FFF74AFFF0BD000045
:10462000002100EB4002024B03EB820291607047D5
:104630003C18002030B500EB40030F4C04EB830323
:104640001B1D13F8213043F0020302EB032300EBA0
:1046500040040A4D05EB8404A38000EB40032C4684
:1046600004EB83039C88064B33F810305B0003F1A6
:10467000C0431C8030BD0000D00900203C18002041
:1046800094090020034A32F81020520002F1C0427F
:1046900011807047B209002000B50346002118467A
:1046A000FFF7F0FF00BD0000014601EB4100064AA4
:1046B00052F8200030B9012001EB4102024B43F8CF
:1046C000220070470020FCE73C180020002100EB8E
:1046D0004002024B43F82210704700003C180020B3
:1046E000002000213E4A126842F480323C4B1A609E
:1046F00000BF401C3A4A126802F4003119B94FF663
:10470000FF729042F5D1364A126802F400320AB9BB
:1047100000BFFEE7324AD26942F08052304BDA6184
:10472000304A126842F440422E4B1A602C4A5268BA
:104730002B4B5A601A4652685A601A46526842F425
:1047400080625A601A46526822F440325A601A4611
:10475000526842F440325A601A465268224B1A405C
:104760001F4B5A601A46526842F4E0125A601A46C9
:10477000126842F080721A6000BF194A126802F093
:104780000072002AF9D0174A126842F48032154BA1
:104790001A6000BF134A526802F48032002AF9D02E
:1047A000104A126842F400320E4B1A6000BF0D4AE4
:1047B000526802F40032002AF9D0094A526822F005
:1047C0000302074B5A601A46526842F002025A60CE
:1047D00000BF034A526802F00802002AF9D070476D
:1047E0000010024000700040FFFFC3B710B5FFF794
:1047F00077FF10BD10B5124800684FF47A71B0FB16
:10480000F1F4601EB0F1807F01D301200FE0601E43
:104810004FF0E02148610F214FF0FF30FDF7D2FB50
:1048200000204FF0E021886107200861002008B1D6
:1048300000BFFEE70021481EFDF7C4FB10BD0000CD
:10484000141500202DE9F04704460D460027B84610
:10485000B94600261D49601A8C421CD006DC1C4853
:10486000204470B1B0F5806F1FD10FE0B0F5806FBC
:1048700016D0B0F56C4F18D10320FFF731FC074676
:1048800014E00220FFF72CFC07460FE00220FFF7A0
:1048900027FC07460AE00220FFF722FC074605E056
:1048A0000220FFF71DFC074600E000BF00BF07EB3A
:1048B0005500B0FBF5F64FF6F07006EA000806F07A
:1048C0000F0948EA0900A060BDE8F087004C0040ED
:1048D00000BCFFBF01464868C0F308007047C1F341
:1048E000080242607047000010B504462049601A73
:1048F0008C4228D006DC1F48204490B1B0F5806F70
:1049000033D117E0B0F5806F26D0B0F56C4F2CD1C5
:1049100040F20E30FFF7B2FC40F20E30FFF79EFC83
:1049200024E040F21140FFF7A9FC40F21140FFF7EC
:1049300095FC1BE040F21240FFF7A0FC40F2124051
:10494000FFF78CFC12E040F21340FFF797FC40F2B7
:104950001340FFF783FC09E040F21440FFF78EFCA0
:1049600040F21440FFF77AFC00E000BF00BF10BD2A
:10497000004C004000BCFFBFC16841F40051C16061
:10498000704710B500EB9112126801F01F0401236B
:10499000A3409A4300EB91131A6010BD0A46002110
:1049A000416921F400711143416170470A460021B9
:1049B000416921F4807111434161704710B500EBEA
:1049C0009112126801F01F040123A3401A4300EB67
:1049D00091131A6010BD70B5024600230024C1F384
:1049E0008910105801F01F060125B54000EA0503A3
:1049F00002EB91500068C1F304460125B54000EA7E
:104A0000050414B10BB1012070BD0020FCE70000CB
:104A100010B50024FFF7F0F900BF53E02C4901EB7B
:104A200004110868FFF760FF294A02EB041251687D
:104A3000274A02EB04121068FFF704FF244901EB38
:104A400004110868002100F067F8214901EB041106
:104A50000868002100F050F81D4901EB04110868B6
:104A6000002100F039F81A4901EB0411086800210F
:104A7000FFF79CFF164901EB041108680021FFF7BE
:104A80008DFF134901EB04110868042100F02CF894
:104A90000F4901EB04110868082100F035F80C49B2
:104AA00001EB04110868FFF767FF094901EB0411E6
:104AB0008868FCF711FB064901EB0411C868FCF794
:104AC0000BFB641C034800688442A7D310BD0000A0
:104AD00004150020644B0008C26822F4C062C26062
:104AE000C2680A43C26070470A460021C16821F0CB
:104AF00004011143C1607047026922F4405202610F
:104B000002690A43026170470A460021C16821F028
:104B100008011143C1607047C26822F48052C2602C
:104B2000C2680A43C2607047024601EB022080B2AD
:104B30007047020A0A7048707047000014000000B5
:104B400010000000020000000400000000E9000066
:104B5000010000000D00000000E500000100000061
:104B60000600000001000000884B00080000002043
:104B700018150000D80100083C5200081815002044
:104B8000380D0000402A00088113E0033320011390
:104B9000E4075B20020832031AFC18420412085B87
:104BA00020050832061318043320071A1C105A086F
:104BB0000832091A3418320A1A38105A0B08320C03
:104BC0001A5018320D1A54105A0E08320F1A6C1857
:104BD00032101A70105A110832121ACC0881299812
:104BE000011429A8290441296409162C29C841293E
:104BF0006029306910E924293CA948E94C69382921
:104C0000C8091E6C320432050213C8693829E869E4
:104C1000C00912242904021B0B292029409A1010D4
:104C20002978C17207091E482904A9480916D829FC
:104C3000D4091E480A2108B40A1D17FC29700A1D50
:104C4000182429EC5A19246934011029B00A1D09C5
:104C50009032060A190CDC2924811318154C200106
:104C6000011269CC22C4191449AA69881AE8142BC4
:104C70000201A289A02B54012849A629062978A956
:104C800028290629041A78282B03011E49102940D7
:104C90003A303C49A2290629041AE41454020107B7
:104CA0001AA4483208132C022A20124B2803104160
:104CB0001AC80C1A3CB8C15AFC10291CDA5C1C8BAF
:104CC00014161CDA7C1C9A2C1CDA9C1C9A441CDAE4
:104CD000BC1C9A5C1CDADC1C1A741C02130129F837
:104CE0002904415A110C02130329142940720C099A
:104CF000124C6938A924E92869240A210D48021BAD
:104D00000B695C0A2110489A12E4091648091E6CC6
:104D10002940A96CF2040A59076C0916D80A1D0526
:104D20004829040A21086C0A1D17B429700A1D18A5
:104D30002432040A1D096C29B05A1948695801180F
:104D4000138C164C200101FE69A8133405BD200206
:104D50000106982BA40414499A290629641AEC1414
:104D60002B010192491429041A103C4B01017229AC
:104D70001A29281A7C142B03010A4914E928290648
:104D800029183AE82849781A885C32071354062A09
:104D90002012132C077320081ACC0C1AB0B8C14B80
:104DA000581710291CDACC1C9A6C1CDAE81C9A8063
:104DB0001C5A040C819A941CDA201C9AA81CDA3C18
:104DC0001C1ABC105A01E8812AD0142A011621139A
:104DD0008C082A201C5AF4281A9410491AE11AA89F
:104DE000181AC004C16AC82C140801401A10044AD9
:104DF00018042950320469782D0206040601792826
:104E00003C0C014038294E4A40204B0306306914BF
:104E100011130201260D0E06282864E301E36950F0
:104E2000295C32089A102F0A1780211A01173A01BB
:104E3000171112F012F112F212F312F412F512F627
:104E400012F712F812F912FA12FB12FC12FD80206E
:104E5000FE01F001F101F201F301F401F501F601A7
:104E6000F701F801F901FA01FB01FC01FD01FE293E
:104E700063690441395859109A030C2983690C9AC3
:104E8000050C19E7790C9A070C29AF690C9A090CE3
:104E90009A0A0C9A0B789A0C0C9A0D0CAA0EA86C14
:104EA000E9FFFF1A49A8A90C190EEAE52049B649FD
:104EB0008C5210522052408A805B091831711AF4CA
:104EC00026699429C47974315A03085AC841690C77
:104ED0009A050C9A060C9A070C296B690C9A090C16
:104EE0002964690C9A0B0C9A0C0C9A0D0C9A0E0CF6
:104EF0009A0F0C29C5690C9A110C9A120C9A130C72
:104F00009A140C9A150C9A160C324873B58E2961B6
:104F1000091108299C114A32C8114A1E0823401F52
:104F2000720359086936395C2914190882A03202C3
:104F30005A0709130C0C6A20388A0433512910E9E6
:104F4000280A1105288A066469873938E98C5A08C5
:104F50004029B55A145002130929D4292C49E56176
:104F60000A110B780A110C780A110D786A0E78195B
:104F7000055A1C7802130F29313978392D610A112D
:104F800011787A127883401F8A1378827D5A14B878
:104F9000415A2C780213156A1678B10A1117780A4B
:104FA0001118780A1119780A111A7802131B0A11BC
:104FB0001C780A111D787A1E78696B212981590D98
:104FC00082102969420519055A24780A1121506A6C
:104FD0002278392D610A112328690D5A026C320694
:104FE0005A073C32095A0AE8320C320D320E5A0F77
:104FF0009132113212321332143215321632173204
:10500000183219321A321B5A1CF829E829D829B942
:1050100029B829A8299881DA479869048129A829FB
:1050200004A91429B829A429088129E829B4A914B4
:105030005A05C4B9FD7113D9422A08582948131CCE
:105040000F1B202025293CA98029EC411A2420DAB5
:1050500090900916202944394812432A089429605F
:105060002A2C6059A4690469F0411A3420A9B42992
:1050700004A9405A3C40415A060429205A08205AA3
:10508000442029385A0704A9609A4C60293429041D
:10509000A9409A54605A090429205A10205A5C20C9
:1050A000320E5A0A04A9609A646029302904A94082
:1050B0009A6C605A0C0429205A11205A7420320F1D
:1050C0005A0D04A9609A7C6029842904A9409A8415
:1050D000602944290429205A06201A8C20323029BC
:1050E000906904415A05205A94204129542904A961
:1050F000409A9C20415A029C5A03443204292C3283
:105100000832075A09385A0AEC29B029D4299829B3
:105110005C398012E4145001E44258B24869F42921
:1051200064490849125A02123A0276290829762956
:1051300008298229082982290829822908298E29F3
:1051400008298E2908298E2908299A2908299A29A7
:1051500008299A29CC29A6290829A649D813B012CA
:105160006A20946998135D0A3A08108A901413B162
:105170000C2A089E9A02141A491429AA5A061429BC
:105180006613A9092A08B65A09142934134D0B2AA3
:10519000086C9A0A1413CF0F2A08CE8B0191501372
:1051A000AF072A08DA9A02141AF91429E65A0314E6
:1051B0002904131D0D2A08F29A04141A791429FEE1
:1051C0005A0514297013190E2B080BA0591429AC79
:1051D0001A9914320C9A073C1AD73C29BC5A081465
:1051E00029981AE9282A0E208A928C136D0A2B0816
:1051F0000FA0591429041AD9142A100C9A931419BF
:10520000F02A1128591429F01A57F02A12208A94EA
:105210008C13CD082B081320591429041349092B8A
:1052200008142099141A4528021415124C12404AE9
:0C523000C29E39060400A24A04000000DF
:0400000508000131BD
:00000001FF
